{
  "_format": "hh3-artifact-1",
  "contractName": "SimpleVault",
  "sourceName": "contracts/SimpleVault.sol",
  "abi": [
    {
      "inputs": [],
      "stateMutability": "nonpayable",
      "type": "constructor"
    },
    {
      "inputs": [],
      "name": "EnforcedPause",
      "type": "error"
    },
    {
      "inputs": [],
      "name": "ExpectedPause",
      "type": "error"
    },
    {
      "inputs": [
        {
          "internalType": "address",
          "name": "owner",
          "type": "address"
        }
      ],
      "name": "OwnableInvalidOwner",
      "type": "error"
    },
    {
      "inputs": [
        {
          "internalType": "address",
          "name": "account",
          "type": "address"
        }
      ],
      "name": "OwnableUnauthorizedAccount",
      "type": "error"
    },
    {
      "inputs": [],
      "name": "ReentrancyGuardReentrantCall",
      "type": "error"
    },
    {
      "anonymous": false,
      "inputs": [
        {
          "indexed": true,
          "internalType": "address",
          "name": "user",
          "type": "address"
        },
        {
          "indexed": false,
          "internalType": "uint256",
          "name": "amount",
          "type": "uint256"
        }
      ],
      "name": "Deposited",
      "type": "event"
    },
    {
      "anonymous": false,
      "inputs": [
        {
          "indexed": false,
          "internalType": "uint256",
          "name": "oldLockPeriod",
          "type": "uint256"
        },
        {
          "indexed": false,
          "internalType": "uint256",
          "name": "newLockPeriod",
          "type": "uint256"
        }
      ],
      "name": "LockPeriodUpdated",
      "type": "event"
    },
    {
      "anonymous": false,
      "inputs": [
        {
          "indexed": true,
          "internalType": "address",
          "name": "previousOwner",
          "type": "address"
        },
        {
          "indexed": true,
          "internalType": "address",
          "name": "newOwner",
          "type": "address"
        }
      ],
      "name": "OwnershipTransferred",
      "type": "event"
    },
    {
      "anonymous": false,
      "inputs": [
        {
          "indexed": false,
          "internalType": "address",
          "name": "account",
          "type": "address"
        }
      ],
      "name": "Paused",
      "type": "event"
    },
    {
      "anonymous": false,
      "inputs": [
        {
          "indexed": false,
          "internalType": "address",
          "name": "account",
          "type": "address"
        }
      ],
      "name": "Unpaused",
      "type": "event"
    },
    {
      "anonymous": false,
      "inputs": [
        {
          "indexed": true,
          "internalType": "address",
          "name": "user",
          "type": "address"
        },
        {
          "indexed": false,
          "internalType": "uint256",
          "name": "amount",
          "type": "uint256"
        }
      ],
      "name": "Withdrawn",
      "type": "event"
    },
    {
      "inputs": [
        {
          "internalType": "address",
          "name": "user",
          "type": "address"
        }
      ],
      "name": "balanceOf",
      "outputs": [
        {
          "internalType": "uint256",
          "name": "",
          "type": "uint256"
        }
      ],
      "stateMutability": "view",
      "type": "function"
    },
    {
      "inputs": [],
      "name": "deposit",
      "outputs": [],
      "stateMutability": "payable",
      "type": "function"
    },
    {
      "inputs": [
        {
          "internalType": "address",
          "name": "",
          "type": "address"
        }
      ],
      "name": "lastDepositTime",
      "outputs": [
        {
          "internalType": "uint256",
          "name": "",
          "type": "uint256"
        }
      ],
      "stateMutability": "view",
      "type": "function"
    },
    {
      "inputs": [],
      "name": "lockPeriod",
      "outputs": [
        {
          "internalType": "uint256",
          "name": "",
          "type": "uint256"
        }
      ],
      "stateMutability": "view",
      "type": "function"
    },
    {
      "inputs": [],
      "name": "owner",
      "outputs": [
        {
          "internalType": "address",
          "name": "",
          "type": "address"
        }
      ],
      "stateMutability": "view",
      "type": "function"
    },
    {
      "inputs": [],
      "name": "pause",
      "outputs": [],
      "stateMutability": "nonpayable",
      "type": "function"
    },
    {
      "inputs": [],
      "name": "paused",
      "outputs": [
        {
          "internalType": "bool",
          "name": "",
          "type": "bool"
        }
      ],
      "stateMutability": "view",
      "type": "function"
    },
    {
      "inputs": [],
      "name": "renounceOwnership",
      "outputs": [],
      "stateMutability": "nonpayable",
      "type": "function"
    },
    {
      "inputs": [
        {
          "internalType": "uint256",
          "name": "newLockPeriod",
          "type": "uint256"
        }
      ],
      "name": "setLockPeriod",
      "outputs": [],
      "stateMutability": "nonpayable",
      "type": "function"
    },
    {
      "inputs": [
        {
          "internalType": "address",
          "name": "newOwner",
          "type": "address"
        }
      ],
      "name": "transferOwnership",
      "outputs": [],
      "stateMutability": "nonpayable",
      "type": "function"
    },
    {
      "inputs": [],
      "name": "unpause",
      "outputs": [],
      "stateMutability": "nonpayable",
      "type": "function"
    },
    {
      "inputs": [
        {
          "internalType": "uint256",
          "name": "amount",
          "type": "uint256"
        }
      ],
      "name": "withdraw",
      "outputs": [],
      "stateMutability": "nonpayable",
      "type": "function"
    }
  ],
  "bytecode": "0x6080604052603c6005553480156013575f5ffd5b503380603857604051631e4fbdf760e01b81525f600482015260240160405180910390fd5b603f816048565b50600180556097565b5f80546001600160a01b038381166001600160a01b0319831681178455604051919092169283917f8be0079c531659141344cd1fd0a4f28419497f9722a3daafe3b4186f6b6457e09190a35050565b6107f1806100a45f395ff3fe6080604052600436106100a5575f3560e01c8063715018a611610062578063715018a614610187578063779972da1461019b5780638456cb59146101ba5780638da5cb5b146101ce578063d0e30db0146101f4578063f2fde38b146101fc575f5ffd5b806302527753146100a95780632e1a7d4d146100e75780633f4ba83a146101085780633fd8b02f1461011c5780635c975abb1461013157806370a0823114610153575b5f5ffd5b3480156100b4575f5ffd5b506100d46100c3366004610737565b60046020525f908152604090205481565b6040519081526020015b60405180910390f35b3480156100f2575f5ffd5b50610106610101366004610764565b61021b565b005b348015610113575f5ffd5b50610106610430565b348015610127575f5ffd5b506100d460055481565b34801561013c575f5ffd5b5060025460ff1660405190151581526020016100de565b34801561015e575f5ffd5b506100d461016d366004610737565b6001600160a01b03165f9081526003602052604090205490565b348015610192575f5ffd5b50610106610442565b3480156101a6575f5ffd5b506101066101b5366004610764565b610453565b3480156101c5575f5ffd5b5061010661049c565b3480156101d9575f5ffd5b505f546040516001600160a01b0390911681526020016100de565b6101066104ac565b348015610207575f5ffd5b50610106610216366004610737565b610582565b6102236105bc565b61022b6105e6565b5f811161027f5760405162461bcd60e51b815260206004820152601b60248201527f576974686472617720616d6f756e74206d757374206265203e2030000000000060448201526064015b60405180910390fd5b335f908152600360205260409020548111156102dd5760405162461bcd60e51b815260206004820152601a60248201527f496e73756666696369656e74207661756c742062616c616e63650000000000006044820152606401610276565b600554335f908152600460205260409020546102f9919061078f565b42116103405760405162461bcd60e51b8152602060048201526016602482015275119d5b991cc8185c99481cdd1a5b1b081b1bd8dad95960521b6044820152606401610276565b335f908152600360205260408120805483929061035e9084906107a8565b90915550506040515f90339083908381818185875af1925050503d805f81146103a2576040519150601f19603f3d011682016040523d82523d5f602084013e6103a7565b606091505b50509050806103ee5760405162461bcd60e51b8152602060048201526013602482015272115512081d1c985b9cd9995c8819985a5b1959606a1b6044820152606401610276565b60405182815233907f7084f5476618d8e60b11ef0d7d3f06914655adb8793e28ff7f018d4c76d505d59060200160405180910390a25061042d60018055565b50565b61043861060a565b610440610636565b565b61044a61060a565b6104405f610688565b61045b61060a565b60055460408051918252602082018390527f5dd7b309b7bc5010d9c96159ee535a428121d6803cb847792402fffccaf1569a910160405180910390a1600555565b6104a461060a565b6104406106d7565b6104b46105bc565b6104bc6105e6565b5f341161050b5760405162461bcd60e51b815260206004820152601a60248201527f4465706f73697420616d6f756e74206d757374206265203e20300000000000006044820152606401610276565b335f908152600360205260408120805434929061052990849061078f565b9091555050335f8181526004602052604090819020429055517f2da466a7b24304f47e87fa2e1e5a81b9831ce54fec19055ce277ca2f39ba42c4906105719034815260200190565b60405180910390a261044060018055565b61058a61060a565b6001600160a01b0381166105b357604051631e4fbdf760e01b81525f6004820152602401610276565b61042d81610688565b6002600154036105df57604051633ee5aeb560e01b815260040160405180910390fd5b6002600155565b60025460ff16156104405760405163d93c066560e01b815260040160405180910390fd5b5f546001600160a01b031633146104405760405163118cdaa760e01b8152336004820152602401610276565b61063e610714565b6002805460ff191690557f5db9ee0a495bf2e6ff9c91a7834c1ba4fdd244a5e8aa4e537bd38aeae4b073aa335b6040516001600160a01b03909116815260200160405180910390a1565b5f80546001600160a01b038381166001600160a01b0319831681178455604051919092169283917f8be0079c531659141344cd1fd0a4f28419497f9722a3daafe3b4186f6b6457e09190a35050565b6106df6105e6565b6002805460ff191660011790557f62e78cea01bee320cd4e420270b5ea74000d11b0c9f74754ebdbfc544b05a25861066b3390565b60025460ff1661044057604051638dfc202b60e01b815260040160405180910390fd5b5f60208284031215610747575f5ffd5b81356001600160a01b038116811461075d575f5ffd5b9392505050565b5f60208284031215610774575f5ffd5b5035919050565b634e487b7160e01b5f52601160045260245ffd5b808201808211156107a2576107a261077b565b92915050565b818103818111156107a2576107a261077b56fea2646970667358221220d2ff42dde78d2b25062fb43985ed79e98ecddfad69ef082de89cc92f6898f26364736f6c634300081c0033",
  "linkReferences": {},
  "deployedLinkReferences": {},
  "immutableReferences": {},
  "inputSourceName": "project/contracts/SimpleVault.sol",
  "buildInfoId": "solc-0_8_28-a3ede1a12303967bf30c739bc967b737b71ccfbf"
}