{
  "_format": "hh3-artifact-1",
  "contractName": "SimpleVault",
  "sourceName": "contracts/SimpleVault.sol",
  "abi": [
    {
      "inputs": [],
      "stateMutability": "nonpayable",
      "type": "constructor"
    },
    {
      "anonymous": false,
      "inputs": [
        {
          "indexed": true,
          "internalType": "address",
          "name": "user",
          "type": "address"
        },
        {
          "indexed": false,
          "internalType": "uint256",
          "name": "amount",
          "type": "uint256"
        }
      ],
      "name": "Deposit",
      "type": "event"
    },
    {
      "anonymous": false,
      "inputs": [
        {
          "indexed": true,
          "internalType": "address",
          "name": "by",
          "type": "address"
        }
      ],
      "name": "Paused",
      "type": "event"
    },
    {
      "anonymous": false,
      "inputs": [
        {
          "indexed": true,
          "internalType": "address",
          "name": "by",
          "type": "address"
        }
      ],
      "name": "Unpaused",
      "type": "event"
    },
    {
      "anonymous": false,
      "inputs": [
        {
          "indexed": true,
          "internalType": "address",
          "name": "user",
          "type": "address"
        },
        {
          "indexed": false,
          "internalType": "uint256",
          "name": "amount",
          "type": "uint256"
        }
      ],
      "name": "Withdraw",
      "type": "event"
    },
    {
      "inputs": [
        {
          "internalType": "address",
          "name": "user",
          "type": "address"
        }
      ],
      "name": "balanceOf",
      "outputs": [
        {
          "internalType": "uint256",
          "name": "",
          "type": "uint256"
        }
      ],
      "stateMutability": "view",
      "type": "function"
    },
    {
      "inputs": [],
      "name": "deposit",
      "outputs": [],
      "stateMutability": "payable",
      "type": "function"
    },
    {
      "inputs": [],
      "name": "owner",
      "outputs": [
        {
          "internalType": "address",
          "name": "",
          "type": "address"
        }
      ],
      "stateMutability": "view",
      "type": "function"
    },
    {
      "inputs": [],
      "name": "pause",
      "outputs": [],
      "stateMutability": "nonpayable",
      "type": "function"
    },
    {
      "inputs": [],
      "name": "paused",
      "outputs": [
        {
          "internalType": "bool",
          "name": "",
          "type": "bool"
        }
      ],
      "stateMutability": "view",
      "type": "function"
    },
    {
      "inputs": [],
      "name": "totalDeposits",
      "outputs": [
        {
          "internalType": "uint256",
          "name": "",
          "type": "uint256"
        }
      ],
      "stateMutability": "view",
      "type": "function"
    },
    {
      "inputs": [],
      "name": "unpause",
      "outputs": [],
      "stateMutability": "nonpayable",
      "type": "function"
    },
    {
      "inputs": [
        {
          "internalType": "uint256",
          "name": "amount",
          "type": "uint256"
        }
      ],
      "name": "withdraw",
      "outputs": [],
      "stateMutability": "nonpayable",
      "type": "function"
    },
    {
      "stateMutability": "payable",
      "type": "receive"
    }
  ],
  "bytecode": "0x60a0604052348015600e575f5ffd5b503360805260015f819055805460ff1916905560805161074a6100475f395f818161023701528181610474015261050e015261074a5ff3fe60806040526004361061007c575f3560e01c80637d8820971161004c5780637d882097146101fd5780638456cb59146102125780638da5cb5b14610226578063d0e30db014610271575f5ffd5b80632e1a7d4d1461015f5780633f4ba83a146101805780635c975abb1461019457806370a08231146101bb575f5ffd5b3661015b5760015460ff16156100ad5760405162461bcd60e51b81526004016100a490610670565b60405180910390fd5b5f34116100e95760405162461bcd60e51b815260206004820152600a6024820152697a65726f2076616c756560b01b60448201526064016100a4565b335f90815260026020526040812080543492906101079084906106a4565b925050819055503460035f82825461011f91906106a4565b909155505060405134815233907fe1fffcc4923d04b559f4d29a8bfc6cda04eb5b0d3c460751c2402c5c5cc9109c9060200160405180910390a2005b5f5ffd5b34801561016a575f5ffd5b5061017e6101793660046106bd565b610279565b005b34801561018b575f5ffd5b5061017e610469565b34801561019f575f5ffd5b5060015460ff1660405190151581526020015b60405180910390f35b3480156101c6575f5ffd5b506101ef6101d53660046106d4565b6001600160a01b03165f9081526002602052604090205490565b6040519081526020016101b2565b348015610208575f5ffd5b506101ef60035481565b34801561021d575f5ffd5b5061017e610503565b348015610231575f5ffd5b506102597f000000000000000000000000000000000000000000000000000000000000000081565b6040516001600160a01b0390911681526020016101b2565b61017e61059f565b5f546002036102b75760405162461bcd60e51b815260206004820152600a6024820152697265656e7472616e637960b01b60448201526064016100a4565b60025f5560015460ff16156102de5760405162461bcd60e51b81526004016100a490610670565b5f811161031b5760405162461bcd60e51b815260206004820152600b60248201526a1e995c9bc8185b5bdd5b9d60aa1b60448201526064016100a4565b335f90815260026020526040902054818110156103715760405162461bcd60e51b8152602060048201526014602482015273696e73756666696369656e742062616c616e636560601b60448201526064016100a4565b61037b8282610701565b335f908152600260205260408120919091556003805484929061039f908490610701565b90915550506040515f90339084908381818185875af1925050503d805f81146103e3576040519150601f19603f3d011682016040523d82523d5f602084013e6103e8565b606091505b505090508061042b5760405162461bcd60e51b815260206004820152600f60248201526e1d1c985b9cd9995c8819985a5b1959608a1b60448201526064016100a4565b60405183815233907f884edad9ce6fa2440d8a54cc123490eb96d2768479d49ff9c7366125a94243649060200160405180910390a2505060015f5550565b336001600160a01b037f000000000000000000000000000000000000000000000000000000000000000016146104cd5760405162461bcd60e51b81526020600482015260096024820152683737ba1037bbb732b960b91b60448201526064016100a4565b6001805460ff1916905560405133907f5db9ee0a495bf2e6ff9c91a7834c1ba4fdd244a5e8aa4e537bd38aeae4b073aa905f90a2565b336001600160a01b037f000000000000000000000000000000000000000000000000000000000000000016146105675760405162461bcd60e51b81526020600482015260096024820152683737ba1037bbb732b960b91b60448201526064016100a4565b6001805460ff19168117905560405133907f62e78cea01bee320cd4e420270b5ea74000d11b0c9f74754ebdbfc544b05a258905f90a2565b60015460ff16156105c25760405162461bcd60e51b81526004016100a490610670565b5f34116105fe5760405162461bcd60e51b815260206004820152600a6024820152697a65726f2076616c756560b01b60448201526064016100a4565b335f908152600260205260408120805434929061061c9084906106a4565b925050819055503460035f82825461063491906106a4565b909155505060405134815233907fe1fffcc4923d04b559f4d29a8bfc6cda04eb5b0d3c460751c2402c5c5cc9109c9060200160405180910390a2565b6020808252600690820152651c185d5cd95960d21b604082015260600190565b634e487b7160e01b5f52601160045260245ffd5b808201808211156106b7576106b7610690565b92915050565b5f602082840312156106cd575f5ffd5b5035919050565b5f602082840312156106e4575f5ffd5b81356001600160a01b03811681146106fa575f5ffd5b9392505050565b818103818111156106b7576106b761069056fea2646970667358221220c09e68549ae9049df070dbe8b7818b712d9df2a746d73726c97dd090f966689364736f6c634300081c0033",
  "linkReferences": {},
  "deployedLinkReferences": {},
  "immutableReferences": {
    "7": [
      {
        "length": 32,
        "start": 567
      },
      {
        "length": 32,
        "start": 1140
      },
      {
        "length": 32,
        "start": 1294
      }
    ]
  },
  "inputSourceName": "project/contracts/SimpleVault.sol",
  "buildInfoId": "solc-0_8_28-e43f8b6a57f8f564de9425c5196016539315da0c"
}